:020000040800F2
:1000000068090020DD3A0008E50E0008E90E000846
:10001000ED0E0008F10E0008F50E000800000000CB
:10002000000000000000000000000000F90E0008C1
:10003000FD0E000800000000010F0008C10D0008BF
:10004000F73A0008F73A0008F73A0008F73A0008CC
:10005000F73A0008F73A0008F73A0008F73A0008BC
:10006000F73A00085D0E00087D0E00089D0E00089E
:10007000F73A0008410E0008F73A0008F73A00087E
:10008000F73A0008F73A000800000000E10D000808
:10009000F73A0008F73A0008F73A0008F73A00087C
:1000A000F73A0008F73A0008F73A0008F73A00086C
:1000B000F73A000800000000F73A000800000000CE
:1000C000F73A000800000000F73A0008F73A000885
:1000D000F73A0008F73A0008F73A00080000000075
:1000E0000000000000000000F73A0008F73A00089E
:1000F000F73A0008F73A0008F73A0008F73A00081C
:10010000F73A00080000000000000000F73A00087D
:1001100000000000000000000000000000000000DF
:1001200000000000000000000000000000000000CF
:1001300000000000000000000000000000000000BF
:1001400000000000000000000000000000000000AF
:100150000000000000000000F73A0008F73A00082D
:10016000F73A0008F73A000800F002F800F03AF811
:100170000AA090E8000C82448344AAF10107DA4502
:1001800001D100F02FF8AFF2090EBAE80F0013F01A
:10019000010F18BFFB1A43F001031847AC460000DB
:1001A000CC460000103A24BF78C878C1FAD852076C
:1001B00024BF30C830C144BF04680C6070470000E1
:1001C0000023002400250026103A28BF78C1FBD860
:1001D000520728BF30C148BF0B6070471FB51FBD15
:1001E00010B510BD03F03BFD1146FFF7F7FF01F01E
:1001F0000FF803F059FD03B4FFF7F2FF03BC03F05F
:1002000061FD000080B5DDF808C0A1F1010EBEF16E
:10021000050F0AD80FF20401DFE80EF0030D1014E9
:100220001B220021116018601DE000201060186082
:10023000CCF8000080BD414211600CE041421160E9
:10024000002102E00021116041421960CCF8000059
:1002500080BD1060404218600020CCF8000080BDD6
:100260000021106019604042CCF8000080BD00BF42
:1002700040F29001C2F20001087070474FF6184139
:10028000CFF6FF7110F57A7FC8BF014640F29200A9
:10029000C2F20000B1F57A7FA8BF4FF47A710180F5
:1002A000704700BF2DE9F04F81B040F20410C2F258
:1002B0000000B0F90010B1F57A7F14DA40F28C0238
:1002C00040F20E03C2F20002C2F200035288B3F9F8
:1002D000007001310180B81800EBD0704008188020
:1002E00001B0BDE8F08F40F2980AC2F2000ABAF8F5
:1002F000004045F62940604381B2890841EA8030D8
:1003000080B2000940F28C082828C2F2000834D8D4
:1003100040F2040BC2F2000BDBF8000003F0CAFF4E
:100320008146B8F800000D4603F0C5FD4CF200030D
:10033000C3F69873002203F0D1FD4AF6FC1246F290
:100340004D23CDF2F122C3F6507303F0C7FD48F2FE
:100350002B724FF2CE7306460F46CDF61612C3F639
:10036000EF734846294603F0B9FD32463B4603F099
:10037000E3FC03F0AFFCCBF8000040F29600C2F2C1
:100380000000007840F20045C4F60005611CAAF8A0
:100390000010A8B141F2597289B2CDF2B712A1FB97
:1003A000022340F29702C2F2000212781F0B0132C0
:1003B000B7FBF2F77A43C2EB1332002A00F09B80BE
:1003C000002228464FF4806101F02CFD40F20E011E
:1003D000C2F20001B8F80200B1F9001042F600497B
:1003E000401AC4F2010903F04FFD48F23F024CF6F7
:1003F0009C13C9F6C912C3F6C97303F06FFD03F06D
:1004000069FC40F29C0120F00040C2F2000108604B
:100410000021C4F2701103F086FF80B940F2900011
:10042000C2F20000007850B140F21000C2F20000A9
:100430000078012803D0484602F044FB02E0484619
:1004400002F046FB28464FF4006101F0F3FC40F255
:10045000ED04C2F20004207005F58050022101F085
:10046000E9FC40F2EE06C2F20006307005F580604D
:100470004FF4804101F0DEFC40F2EF01C2F20001D6
:1004800008702178327801EB800040F2EC0100EB3B
:100490004200C2F20001087044F6400140F2E80256
:1004A000C0B2C0F60001C2F2000240F29203095C41
:1004B0001068C2F2000340F20618B3F90030C2F22D
:1004C0000008A0EB203088F80010184440F2940394
:1004D00001391060020BC2F2000305291A801BD8F3
:1004E00040F30F30DFE801F0031C202225290746E6
:1004F0004042002624E0B1FBF0F202FB101000287D
:100500007FF464AF40F29A00C2F200000178B1FAC1
:1005100081F14A09027054E70026002700200FE00D
:100520004642074600200BE0464208E047420026CC
:1005300006E047420646002002E006464042002709
:100540004FF6A535CFF6FF752946A842C8BF01462C
:1005500040F25B4401F26542A04248464FF002017E
:10056000C8BF4FF40C6202F013FC2846AF42C8BF6C
:10057000384600F2654248460121A742C8BF4FF401
:100580000C6202F005FCAE42C8BF354605F265427A
:1005900048460021A642C8BF4FF40C6202F0F8FBA7
:1005A00040F21016C2F20006306840F2F004410931
:1005B0007C299CBF01303060C2F20004217898F899
:1005C00000503068012912D0012D10D103F0E6FF50
:1005D00001464FF6EC10C4F2F84003F0CDFE40F2B5
:1005E0000811C2F2000108600020306008E0B0F598
:1005F0007A6F05D340F20810C2F2000000210160BA
:10060000257001B0BDE8F08F4FF4407001F066BC7A
:1006100080B540F61D1001F065FE002818BF01F0FE
:100620006FFE40F6FF70022101F050FB012809D156
:1006300040F6FF7001F030FB012803D101F024FBEC
:10064000012080BD002080BDB0B54FF4E16001F015
:1006500015FD42F20004C4F20004204602F06EF8D8
:1006600040F21C15C2F2000500204FF4001148F6BC
:10067000A042C5E9001028732046AA6002F044F9A0
:100680002046294602F0C4F813200021002201F080
:100690002FFC2046012102F0A1F92046BDE8B04020
:1006A00002F020B970B540F2115001F0E7FC40F2C1
:1006B000125001F0E3FC40F2135001F0DFFC40F275
:1006C000165001F0DBFC4FF09040012100224FF466
:1006D000004301F055FB4FF09040002101224FF400
:1006E000004301F077FB40F20044C4F600042046CA
:1006F00001210022082301F043FB204600210122B2
:10070000082301F067FB4FF09040012100224FF4D5
:10071000805301F035FB4FF09040002101224FF44F
:10072000805301F057FB4FF090400121002202233B
:1007300001F026FB4FF0904000210122022301F03E
:1007400049FB4FF0904001210022012301F018FBEA
:100750004FF0904000210122012301F03BFB204695
:10076000002100224FF4006301F00AFB04F58055DC
:10077000284600210022022301F002FB04F58066D6
:100780003046002100224FF4804301F0F9FA4FF087
:10079000904002210122042301F0F2FA4FF0904030
:1007A00002210122082301F0EBFA4FF090400021D2
:1007B0000322042301F00EFB4FF09040002103229E
:1007C000082301F007FB4FF090400121042201F0C3
:1007D00045FB4FF090400121082201F03FFB4FF014
:1007E000904003210022102301F0CAFA4FF09040FC
:1007F00003210022402301F0C3FA4FF0904003216F
:100800000022402301F0BCFA2046032100220123EC
:1008100001F0B6FA2046022100224FF4805301F085
:10082000AFFA204602214FF4805201F017FB4FF03F
:100830009040022100224FF4806301F0A1FA4FF0B2
:100840009040022100224FF4007301F099FA4FF01A
:100850009040022100224FF4807301F091FA20466B
:10086000022100224FF4004301F08AFA20460221BF
:1008700000224FF4804301F083FA20460221002237
:100880004FF4005301F07CFA4FF090400021002219
:100890004FF4806301F09EFA4FF090400021002257
:1008A0004FF4007301F096FA4FF0904000210022BF
:1008B0004FF4807301F08EFA2046002100224FF49D
:1008C000004301F087FA2046002100224FF48043C4
:1008D00001F080FA2046002100224FF4005301F07D
:1008E00079FA4FF0904002214FF4806201F0B6FA9D
:1008F0004FF0904002214FF4007201F0AFFA4FF038
:10090000904002214FF4807201F0A8FA20460221A3
:100910004FF4004201F0A2FA204602214FF4804237
:1009200001F09CFA204602214FF4005201F096FAA1
:10093000204601210022042301F022FA2046002152
:100940000122042301F046FA20460221012240231D
:1009500001F016FA204602210122802301F010FA4C
:10096000204600210322402301F034FA20460021D2
:100970000322802301F02EFA20460021402201F0BC
:100980006DFA20460021802201F068FA20460121FC
:1009900000224FF4806301F0F3F920460021032286
:1009A0004FF4806301F016FA3046002100224FF424
:1009B000004301F0E5F92846002101220123BDE8AA
:1009C000704001F0DDB900BF70B540F20B6001F07E
:1009D00055FB42F60044C4F20104204601F0AEFE8D
:1009E00040F25415C2F2000500264FF4001040F604
:1009F000CA01C5E900062046A9602E7301F084FFF4
:100A00002046294601F004FF20460221002202F080
:100A1000E3F920460121002202F0DEF92046002100
:100A2000002202F0D9F920460221002202F0B6F994
:100A300020460121002202F0B1F9204600210022C7
:100A400002F0ACF920460221702202F083F9204620
:100A50000121702202F07EF920460021702202F06E
:100A600079F920460221002202F092F92046012164
:100A7000002202F08DF920460021002202F088F9C0
:100A800040F24415C2F200054FF40020C5F80600FC
:100A90004FF00070C5F80A00204602212A4602F0F5
:100AA00045F8204601212A4602F040F82046002160
:100AB0002A4602F03BF840F22C11C2F200014FF43A
:100AC00000603C22C1E9000601F108004FF48053A8
:100AD0004FF4804564C020464B6101F0D5FF2046AD
:100AE00001F006FF20460221012202F0FDF9204616
:100AF0000121012202F0F8F920460021012202F032
:100B0000F3F920460221042202F014FA20460121C2
:100B1000042202F00FFA20460021042202F00AFA11
:100B20000D200021002201F0E3F92046012101F00F
:100B300055FF2046BDE8704001F0D4BEF0B581B04D
:100B400040F2096001F09AFA4FF4A06001F096FAC1
:100B5000032001F037FB0920012100220127002595
:100B600001F0C6F9002000F0D9FE40F2A001C2F267
:100B7000000140F28C00C2F2000001F10C0C4FF4B5
:100B8000806242F24C448CE825004FF4405002232E
:100B9000C4F20104086200204FF4807681E8D0009E
:100BA000C1E9065300F0DEFE002000F019FF00202E
:100BB00000F03AFF0020022101F028F80020022175
:100BC00000F066FF002000F03BFF0120022100F052
:100BD000A7FC00200421022200F0CCFC0120062109
:100BE000022200F0C7FC002000F08CFC0120012153
:100BF00000F064FD01204FF4602100F083FD00F05F
:100C00000FFC00F021FC00F071FE00F0BFFB00F0D3
:100C1000D5FB00F0E7FB4FF48070012101B0BDE887
:100C2000F04000F03DBC00BFB0B540F2117001F0E3
:100C300025FA4FF4A06001F021FA44F20044C4F216
:100C4000000420464FF4E13102F044FC204600212C
:100C5000002502F06DFC2046002102F075FC2046C4
:100C6000002102F07DFC2046002102F001FD20461B
:100C7000082102F08DFC2046042102F091FC204660
:100C800002F07AFC0B200221002201F031F904204D
:100C900000F044FE40F2C40140F26410C2F20001D0
:100CA000C2F200000122C1E902204FF4405004F1D9
:100CB000240308620420C1E90035C1E90455C1E9F3
:100CC000065200F04FFE042000F08AFE042000F0DF
:100CD000ABFE2046402102F077FE0420022100F006
:100CE00095FF0420012100F0D3FE0420BDE8B040B0
:100CF00000F0A6BEB0B540F20E6001F0BFF94FF4AF
:100D0000A06001F0BBF943F60004C4F201042046E0
:100D10004FF4964102F0DEFB20460021002502F050
:100D200007FC2046002102F00FFC2046002102F0C3
:100D300017FC2046002102F09BFC2046082102F00F
:100D400027FC2046042102F02BFC204602F014FC74
:100D50000A200221002201F0CBF8022000F0DEFD83
:100D600040F2C40140F26510C2F20001C2F200007C
:100D70000122C1E902204FF4405004F1240308622B
:100D80000220C1E90035C1E90455C1E9065200F06D
:100D9000E9FD022000F024FE022000F045FE20467E
:100DA000402102F011FE0220022100F02FFF02205C
:100DB000012100F06DFE0220BDE8B04000F040BE11
:100DC00040F2F400C2F20000016801310160704796
:100DD00040F21810C2F2000000210160704700BF0D
:100DE00040F21810C2F200000168B1F5FA6F18D98C
:100DF00040F21000C2F20000017879B940F21411FB
:100E0000C2F2000100220A6040F20C11C2F200019D
:100E10000A6040F20801C2F200010A70012101706B
:100E200007E040F21002C2F2000200230131137009
:100E3000016042F20000C4F20000012101F0E4BDB3
:100E400080B5012000F074FC42F60040C4F20100BD
:100E50000121BDE8804001F0D7BD00BF80B5FFF79C
:100E600021FA0020022100F08DFE002808BF80BD7D
:100E700000200221BDE8804000F0BEBE80B5022007
:100E8000022100F07FFE002808BF80BD00F0C6F8F8
:100E900002200221BDE8804000F0AEBE80B50420F3
:100EA000022100F06FFE002808BF80BD00F0F2F8BC
:100EB00004200221BDE8804000F09EBE40F2F40014
:100EC000C2F2000000687047002808BF704740F277
:100ED000F401C2F200010A6800BF0B689B1A83424A
:100EE000FAD37047704700BFFEE700BFFEE700BFC0
:100EF000FEE700BFFEE700BF704700BF704700BFBE
:100F000070470000F0B581B092B114460D46064618
:100F1000002700BFE95D304602F04AFB304640F250
:100F2000067102F08FFD0028F8D00137A742F1D1F9
:100F300001B0F0BDB0B50022012917DB41F2210E4E
:100F400003788C46013982EA0322082314B2550043
:100F5000002CA3F1010348BF8EEA42051A062A4677
:100F6000F4D1BCF1020F00F10100E9DA90B2B0BD9A
:100F7000B0B584B040F20400C2F2000000244AF68A
:100F8000CD310068C4F2C824ADF80010214603F04A
:100F900081FB03F0E7FA40F29C01C2F2000109680C
:100FA000ADF806000846214603F074FB03F0DAFAB8
:100FB00040F2F801C2F20001ADF80800D1E90105E4
:100FC000214603F067FB03F0CDFA40F20811C2F2AC
:100FD00000010968ADF80A000846214603F05AFBF3
:100FE00003F0C0FAADF802002846214603F052FB98
:100FF00003F0B8FA6C46ADF8040020460C21FFF768
:1010000099FFADF80C0043F60000C4F20100214640
:101010000E22FFF777FF04B0B0BD00BFB0B540F2BD
:101020006510C2F20000017840F20A002F29C2F2D6
:10103000000004BF00220280B0F90020002A27D45B
:10104000531C9CB240F27805C2F20005072C0380C5
:10105000A95418BFB0BD4FF6FF71B5F80540018027
:1010600028460521FFF766FF844211D140F20C109B
:10107000B5F90110C2F20000B5F90320016040F299
:101080001410C2F200000260BDE8B040FFF7A0BE3D
:10109000B0BD000070B540F26410C2F200000178EB
:1010A00040F20C002F29C2F2000004BF002202808F
:1010B000B0F90020002A45D4531C9EB240F27F04B0
:1010C000C2F200040C2E0380A15418BF70BD4FF66D
:1010D000FF716589018020460A21FFF72BFF8542B9
:1010E00030D1607840F20802C0F3C001C2F20002C1
:1010F000117040F2F801C0F38002C0F3400500F027
:1011000001061120C2F2000160700870D4F80200DC
:10111000D4F80630C1E9010340F60000C4F600002F
:101120004FF4005100F07EFE4FF090400221324615
:1011300000F078FE4FF0904001212A46BDE8704053
:1011400000F070BE70BD00BF70B5417840F208037A
:10115000C1F3C002C2F20003D0F8025040F2F8041A
:101160001A701123C2F2000443706560D0F80600C3
:10117000C1F38002A06040F60000C1F3400601F018
:101180000105C4F600004FF40051237000F04AFE40
:101190004FF0904002212A4600F044FE4FF090406C
:1011A00001213246BDE8704000F03CBE10B584B06D
:1011B00041EAC2112F228DF804204FF61842DDE9D2
:1011C000064CCFF6FF7210F57A7FC8BF024641EA9F
:1011D0004301B2F57A7FA8BF4FF47A728DF80740C9
:1011E00001AC8DF80A1020460721ADF80520ADF8B6
:1011F00008C0FFF79FFEADF80B0044F20040C4F2B8
:10120000000021460922FFF77DFE04B010BD00005A
:101210008AB002F0E1FC40F20000C2F20000006877
:1012200048F21F51C5F2EB11A0FB01014FF0FF3056
:1012300000EB51110020B0EB116F0DD14EF21002F6
:10124000CEF2000251604EF62351CEF20001F0239F
:101250000B70906007201060FFF7DAF900284BD080
:10126000FFF7D2F9FFF7F0F9002608A84FF09041F8
:101270004FF480520123CDE90066029600F03EF85B
:1012800040F20045C4F6000506AC05F58061204635
:101290004FF400420023CDE90066029600F02EF8DC
:1012A00004A8294604220123CDE90066029600F035
:1012B00025F8012100F04EF800F0DEFC204600F099
:1012C0004FF840B106AC00BF00F0D6FC204600F05D
:1012D00047F80028F8D1012508AC00BF05F001014E
:1012E000204600F037F8642085F00105FFF7ECFD9B
:1012F00000F0C2FCF2E700BFFEE700002DE9F04776
:101300000446DDF82880DDE908A9C0E9001240F2B2
:1013100011501F4615460E4600F0B0FE40F2125026
:1013200000F0ACFE40F2135000F0A8FE40F2165060
:1013300000F0A4FE3046394652462B4600F020FD10
:101340003046494642462B4600F044FD2046BDE863
:10135000F08700BF0A46D0E90031184600F062BDB0
:1013600080B5D0E90021104600F064FD002818BFC8
:10137000012080BD80B540F2093000F0BFFE40F290
:101380000930BDE8804000F0C9BE00BF42F208400D
:10139000C4F201000168C90718BF7047016841F035
:1013A00001010160704700BF42F20840C4F2010031
:1013B000016821F001010160704700BF42F208405E
:1013C000C4F20100016841F00801016001680907E9
:1013D000FCD4016841F00401016000BF01684907C5
:1013E000FCD4704742F20840C4F20100016841F4A5
:1013F00080710160704700BF42F20840C4F20100F2
:10140000016821F480710160704700BF42F208401A
:10141000C4F20100016841F400010160704700BF9F
:1014200042F20840C4F20100016821F400010160A9
:10143000704700BF42F20840C4F20100016841F069
:1014400080710160704700BF42F20840C4F20100A1
:10145000016821F080710160704700BF42F20442D0
:10146000C4F201021368022823F4C053136011D0A0
:10147000012818BF7047106820F4604010604FF4D6
:10148000604000EB4130116880B2084310604FF4B7
:10149000006001E04FF4805011680843106070470D
:1014A00042F20442C4F20102002900F4807105D026
:1014B000B9B941051BD480071FD4704719B1116811
:1014C00021F480711160410503D5116821F4806118
:1014D0001160800758BF7047506820F002005060CC
:1014E0007047116841F4807111604105E3D51168BE
:1014F00041F4806111608007DFD5506840F0020040
:101500005060704742F20841C4F201010A680028A5
:1015100022F4006218BF02F500620A60704700BF43
:10152000022814D0012818BF704742F22C40C4F2A0
:101530000100026822F4700202604FF4700202EBB4
:101540000151026801F4700111430160704742F2D9
:101550002C40C4F20100C26822F44012C2604FF471
:10156000401202EB0151C26801F440111143C16005
:10157000704700BF80B5B1F1120342F20C4C18BFA6
:101580000B460528C4F2010C0DD8DCF828E000EB6E
:1015900080001F2181402EEA010103FA00F0084378
:1015A000CCF8280020E00B280ED800EB8000DCF8F7
:1015B00024E01E381F2181402EEA010103FA00F0C9
:1015C0000843CCF824000FE00F280DD800EB800072
:1015D000DCF820E03C381F2181402EEA010103FAAB
:1015E00000F00843CCF82000092B0CD8DCF80400EC
:1015F00003EB430107238B40984302FA01F10843B0
:10160000CCF8040080BD112B88BF80BD03EB4301E3
:10161000DCF800001E3907238B40984302FA01F1E1
:101620000843CCF8000080BD80B542F2384CC4F2CB
:10163000010CDCF80030DCF800E0C3F30153181AA9
:1016400000EB8000C0F10F001F2383402EEA03034C
:1016500001FA00F018430929CCF800000CD85CF816
:10166000280C01EB410107238B40984302FA01F15A
:1016700008434CF8280C80BD122988BF80BD01EBBF
:1016800041015CF82C0C1E3907238B40984302FA69
:1016900001F108434CF82C0C80BD00BF42F214420B
:1016A000C4F20102536AC3F30153C01A0330032882
:1016B0009CBF6FF31F3142F82010704742F208427E
:1016C000C4F20102002900F0010103D079B98007BA
:1016D00013D4704719B1116821F48011116080078B
:1016E00058BF7047106820F40040106070471168C0
:1016F00041F4801111608007EBD5106840F4004080
:1017000010607047012805D0022818BF70476FF499
:10171000E04001E06FF4602042F20842C4F20102AE
:10172000136818401060106808431060704700BFCD
:10173000C10742F20841C4F2010103D00A6842F431
:1017400080020A60800758BF7047086840F40010A4
:101750000860704742F24C40C4F20100006880B259
:10176000704700BF03280AD8DFE800F0020C131A04
:1017700042F23C40C4F20100006880B27047002091
:1017800080B2704742F23C40C4F20100406880B22F
:10179000704742F23C40C4F20100806880B270475A
:1017A00042F23C40C4F20100C06880B2704700BF02
:1017B00042F20041C4F201010968084018BF01204B
:1017C000704700BF42F20041C4F201010A6822EAF8
:1017D00000000860704700BF012807D0042807D028
:1017E00002281CBF00207047202102E0402100E0B9
:1017F000802142F20042C4F201021368526818408C
:10180000114018BF0121002818BF0120084070476F
:1018100042F20041C4F201010A6822EA00000860B5
:10182000704700BFC10742F20441C4F2010103D076
:101830000A6842F040020A60820703D50A6842F053
:1018400020020A60400758BF7047086840F08000D7
:1018500008607047C10742F20441C4F2010103D09D
:101860000A6822F040020A60820703D50A6822F063
:1018700020020A60400758BF7047086820F08000C7
:101880000860704742F20441C4F201010A684FF651
:10189000E053CFF63F731A400A600A6810430860AD
:1018A000086840F4400040F400700860704700BFD2
:1018B00042F20441C4F201010A684FF6FF53CFF629
:1018C0003F7301381A40C3B2022B0A6088BF7047C9
:1018D00040B203A252F820000A6810430860704723
:1018E00000008000000040000000C00042F2044000
:1018F000C4F2010001684FF6E052CFF63F7211408A
:101900000160704742F224426FF31F30C4F20102BB
:101910006FF31F315060116070470000042200EB2C
:101920008001C4F2020202EB81014B68800023F0C7
:1019300001034B6000234B608B60CB600B610F2178
:10194000136801FA00F0184310607047002101226B
:10195000C0E90011C0E90221C0E90412C0E9061182
:101960000162704710B540F2080ED1F800C000EBDC
:101970008000C4F2020E0EEB8003C3F808C0CA68F0
:10198000DA60CA695A605EF820204B6822F47C5CF9
:101990000A690C6A43EA0C031A4322434EF82020DA
:1019A0008A685EF82030002A23F0400308BF4033E5
:1019B0004EF820304A695EF82030002A23F0800378
:1019C00008BF80334EF8203089695EF82020002956
:1019D00022F0100218BF10324EF8202010BD00BFB8
:1019E000082100EB8000C4F2020151F8202042F0EF
:1019F000200241F820207047082100EB8000C4F24B
:101A0000020151F8202022F0200241F820207047E6
:101A1000082100EB8000C4F2020151F8202042F4BA
:101A2000804241F820207047082100EB8000C4F27A
:101A3000020151F8202022F4804241F82020704712
:101A4000082100EB8000C4F2020151F8202042F08E
:101A5000010241F820207047082100EB8000C4F209
:101A6000020151F8202022F0010241F820207047A5
:101A7000102200EB8000C4F2020242F820107047EE
:101A8000142200EB8000C4F2020242F820107047DA
:101A90000C2200EB8000C4F2020242F820107047D2
:101AA0000C2100EB8000C4F2020151F820007047C5
:101AB000082200EB8000C4F2020252F8203023F426
:101AC0004053194342F82010704700BF082200EB32
:101AD0008000C4F2020252F8203023F4406319431C
:101AE00042F82010704700BF082200EB8000C4F2CB
:101AF000020252F8203023F44073194342F82010B8
:101B0000704700BF082100EB8000C4F2020151F8C9
:101B1000202042F0800241F820207047082100EB8D
:101B20008000C4F2020151F8202022F0800241F826
:101B300020207047082100EB8000C4F2020151F818
:101B4000202042F0400241F820207047082100EB9D
:101B50008000C4F2020151F8202022F0400241F836
:101B600020207047082200EB8000C4F2020252F8E5
:101B70002030002923F0100318BF103342F8203022
:101B8000704700BF80B54B1E072B4FF0000131D8C6
:101B900040F2000CC4F2020CDFE803F0040E2C1338
:101BA0002C2C2C18DCF8001082000F2393401940D5
:101BB00021FA02F30E2113E0DCF800E08300022199
:101BC00008E0DCF800E08300042103E0DCF800E03A
:101BD0008300082101FA03F202EA0E0222FA03F35B
:101BE00000EB80000CEB80008068084010EA0301E5
:101BF00018BF0121084680BD0422C4F20202800001
:101C0000136801FA00F0184310607047082200EBD7
:101C10008000C4F2020252F82030194342F820102A
:101C2000704700BF082200EB8000C4F2020252F8A5
:101C3000203023EA010142F8201070470022C4F24C
:101C400002021268800001FA00F0104018BF012063
:101C5000704700BF0422C4F202028000136801FA38
:101C600000F018431060704743F20000C4F2000017
:101C700000210160704700BF43F20000C4F2000081
:101C80004AF6AA210160704743F20000C4F2000046
:101C90004CF6CC410160704743F20001C4F20001F0
:101CA00045F255520A600222CFF6F072CB6803F07B
:101CB00004031AB1002B02F10102F7D1002B11BF6E
:101CC00000206FF31F3008610120704780B540F29B
:101CD000020ECFF6F07E43F2000CC4F2000C45F287
:101CE00055527346CCF80020DCF80C2002F00102BB
:101CF0001BB1002A03F10103F6D16AB9CCF8041034
:101D0000DCF80C10BEF1000F01F0020103D0002935
:101D10000EF1010EF4D109B1002080BD6FF31F3028
:101D2000CCF808004AF6AA20CCF80000012080BDBB
:101D300043F20C01C4F200010968084018BF0120F9
:101D40007047000000F138404FEAB020052888BFF6
:101D50007047C1B22F2222FA01F1C90700D17047A2
:101D600010B544F62C01C0F6000131F810402046B1
:101D700000F0C4F92046BDE8104000F0CFB900BF24
:101D80002DE9F041D0F800E0D0F80CC000244FF06D
:101D90000308002605E000BF0136102E04F10204FE
:101DA00012D023FA06F7FF07F6D008FA04F72EEA56
:101DB000070E01FA04F54EEA050E2CEA070702FAAF
:101DC00004F547EA050CE7E7C0F800E0C0F80CC0EE
:101DD000BDE8F081B0B50129416814BF99431943AA
:101DE0004160D0F808C000214FF0030E002404E049
:101DF0000134102C01F102010CD023FA04F5ED0797
:101E0000F6D00EFA01F52CEA050C02FA01F54CEABF
:101E1000050CEDE7C0F808C0B0BD00BF8161704798
:101E2000816270471823002A08BF28231950704781
:101E3000416170470069084018BF0120704700BF2A
:101E4000006980B2704700BF4069084018BF012098
:101E5000704700BF406980B2704700BFF0B5D0F84E
:101E600020E0D0F824C000230F27002505E000BFA4
:101E70000135082D03F104030CD022FA05F6F6070C
:101E8000F6D007FA03F62EEA060601FA03F446EA4C
:101E9000040EEDE7082300240F2504E00133102B86
:101EA00004F104040CD022FA03F6F607F6D005FA82
:101EB00004F62CEA060701FA04F647EA060CEDE7F9
:101EC000C0F820E0C0F824C0F0BD00BF41F480326B
:101ED000C261C161C261C169C069704740F0806080
:101EE0004EF60C5140F0FD70CEF2000108607047D4
:101EF0004EF60C5CCEF2000CDCF8003003F4E0632C
:101F0000B3F5E06F03D14FF0000C04232BE0DCF8B5
:101F1000003003F4E063B3F5C06F03D14FF0010C60
:101F2000032320E0DCF8003003F4E063B3F5A06F96
:101F300003D102234FF0020C15E0DCF8003003F46B
:101F4000E063B3F5806F03D14FF0030C01230AE087
:101F5000DCF800304FF0040C03F4E063B3F5407399
:101F600018BF01239B0099400F2323FA0CF31A405A
:101F700011434EF20012CEF20002090140EA0203C0
:101F800083F8001300F01F01012303FA01F11C2361
:101F900003EAD0008150704700F01F01012202FACD
:101FA00001F14EF28012CEF2000242EAD00020F09F
:101FB00003000160704700BF4FF68072C1F6FF72E8
:101FC000114008434EF60851CEF2000108607047F8
:101FD0004EF61051CEF200010A68104308607047B7
:101FE0004EF61051CEF200010A6822EA00000860A5
:101FF000704700BF4EF21001CEF200010A680428BB
:1020000022F0040208BF04320A60704741F2040063
:10201000C4F2020050F8041C41F0010140F8041C15
:1020200050F8041C8907FBD501680C22C0F6FF029A
:102030001140016001684FF6FF72CFF2C07211408B
:10204000016001684FF6FF7221F44001016050F811
:10205000041CCFF6F262114040F8041C816A40F281
:10206000431221F00F018162C16A9143C162016B89
:1020700021F00101016300214160704741F200033A
:1020800000F01F018009C4F202034FF0010CC25896
:102090000CFA01F11143C150704700BF41F2000337
:1020A00000F01F018009C4F202034FF0010CC25876
:1020B0000CFA01F122EA0101C150704741F200031C
:1020C00000F01F018009C4F202034FF0010CC25856
:1020D0000CFA01F11143C150704700BF41F20003F7
:1020E00000F01F018009C4F202034FF0010CC25836
:1020F0000CFA01F122EA0101C150704741F20003DC
:1021000000F01F018009C4F202034FF0010CC25815
:102110000CFA01F11143C150704700BF41F20003B6
:1021200000F01F018009C4F202034FF0010CC258F5
:102130000CFA01F122EA0101C150704741F220007E
:10214000C4F20200016841F480310160704700BFB1
:1021500041F22000C4F20200016821F480310160E4
:10216000704700BF41F20401C4F202010A6822F084
:10217000030210430860704741F20400C4F20200F9
:10218000006800F00C00704741F20401C4F2020143
:102190000A6822F0F00210430860704741F204011F
:1021A000C4F202010A6822F4E0621043086070473A
:1021B00041F20401C4F202010A6822F460521043A1
:1021C0000860704741F20401C4F202010A68042861
:1021D00022F440420A60CA6A22F48072CA6288BF4E
:1021E0007047DFE800F003080A0E1200C86A20F406
:1021F0008070C862704708680AE0086840F4804050
:1022000006E0086840F4004002E0086840F44040FE
:102210000860C86A40F48070C862704741F20401E7
:10222000C4F202010A6822F440020A600A681043FC
:102230000860704741F20402C4F2020213680843C6
:1022400023F0774318431060704700BF41F2040247
:10225000C4F20202D2F800C04FF6FF73CFF2C2738D
:1022600003EA0C03136013680843184310607047B7
:1022700041F23001C4F202010A6822F003020A604E
:102280000A6810430860704741F23001C4F202014D
:102290000A6822F040020A600A681043086070472A
:1022A00041F22001C4F202010A6822F440720A607D
:1022B0000A6810430860704741F22C01C4F2020121
:1022C0000A6822F00F0210430860704741F22001B3
:1022D000C4F202010A6822F018020A600A68104378
:1022E0000860704741F200028109C4F20202895875
:1022F00000F01F0021FA00F000F00100704700BF5D
:1023000041F22400C4F20200016841F080710160D2
:10231000704700BF41F20801C4F202010968084099
:1023200018BF0120704700BF41F20801C4F202014A
:102330000A6810430860704741F20801C4F20201C4
:102340000A6810430860704741F20801C4F20201B4
:102350000A6822EA00000860704700BF0146B0F535
:10236000006F4FF000001DDAE1B3102950D018299A
:1023700040F0958041F2000C4FF6FE71C4F2020C61
:10238000C0F20F01002200BFDCF80000013942F169
:102390000003800101D4002BF6D1DCF80000C0F36B
:1023A000406070474AD0B1F5106F61D0B1F5506F01
:1023B00018BF704741F2000C4FF6FE71C4F2020CD8
:1023C000C0F20F01002200BFDCF83400013942F1F5
:1023D0000003800701D4002BF6D1DCF83400C0F3F1
:1023E0004000704741F2000C40F2FF40C4F2020C82
:1023F000002200BFDCF80010013842F10003890719
:1024000001D4002BF6D1DCF80000C0F34000704787
:1024100041F2000C40F2FF70C4F2020C002200BF37
:10242000DCF80010013842F10003890301D4002BCD
:10243000F6D1DCF80000C0F3404070474FF6FE7163
:1024400041F2000CC0F20F01C4F2020C01F17C71E8
:10245000002200BFDCF82000013942F100038007B0
:1024600001D4002BF6D1DCF82000C0F34000704707
:1024700041F2000C4FF6FE71C4F2020CC0F20F01E3
:10248000002200BFDCF82400013942F1000380077C
:1024900001D4002BF6D1DCF82400C0F340007047D3
:1024A00041F2000300F01F018009C4F202034FF063
:1024B000010CC2580CFA01F11143C150704700BF22
:1024C00041F2000300F01F018009C4F202034FF043
:1024D000010CC2580CFA01F122EA0101C150704707
:1024E000B0F5006F0FD0102818BF704741F2000000
:1024F000C4F202000168026841F4802122F48032B3
:1025000002600160704741F20000C4F20200016AFB
:10251000026A41F0040122F0010202620162704786
:10252000B0F5006F0FD0102818BF704741F20000BF
:10253000C4F202000168026821F4802122F4803292
:1025400002600160704741F20000C4F20200016ABB
:10255000026A21F0040122F0010202620162704766
:1025600041F20000C4F20200016841F40021016060
:10257000704700BF41F20000C4F20200016821F47C
:1025800000210160704700BF41F20001C4F2020166
:102590000A6822F0F80242EAC0000860704700BFF3
:1025A00041F23401C4F202010A6822F0F80242EA60
:1025B000C0000860704700BF41F20010C4F2020082
:1025C000016800210160016843F64D42C1F62B22EB
:1025D00011430160704700BF41F23411C4F202019F
:1025E0000A6822F007020A600A6810430860704710
:1025F00041F23811C4F202010A6822F001020A60B5
:102600000A6810430860704770B541F20402C4F2D2
:1026100002020146106841F2002CC0F27A0C00F070
:102620000C000828634619D11068136815681B014F
:102630004FF01103C0F3834058BF0223ED03184449
:1026400005D440F60013C0F23D03434306E0936A0D
:1026500003F00F030133BCFBF3F343431468D2F8D8
:1026600000E0106806291ED8C4F303142FA52C5DC2
:1026700044F63805C0F60005C0F3C220285C23FAF2
:1026800004F424FA00F0DFE801F00410123A06180E
:102690002000184670BDD16AC90531D449F6807052
:1026A000C0F2D50070BD002070BD204670BDCEF3D5
:1026B0000220285C24FA00F070BDD06A40064FF476
:1026C000004058BF48F2120070BDD16A890708BFA8
:1026D00070BDD06A00F00300012818460FD0D06A00
:1026E00000F00300022804BF4FF4004070BDD06A20
:1026F00000F00300032818BF4FF0000C604670BDC7
:102700001168C1F38131DFE801F00204060E4008D0
:1027100070BD800870BD4AF6AB21CAF6AA21A0FBA5
:102720000101880870BDC00870BD00BF0000000036
:1027300000000000010203040607080910B542F674
:10274000FF31C4F20101884211DC40F6FF71C4F28E
:102750000001884220DCB0F1804F3CD040F20041C3
:10276000C4F20001884249D140F201443EE044F203
:10277000FF31C4F2010188421DDC42F60041C4F27F
:10278000010188422AD044F20001C4F201018842CA
:1027900034D14FF4447429E041F20001C4F2000145
:1027A00088421ED042F20001C4F20001884225D1C5
:1027B0004FF481641AE044F20041C4F201018842FE
:1027C00012D044F60001C4F20101884218BF10BDC6
:1027D00040F212340AE04FF4806407E040F20B3418
:1027E00004E040F2044401E040F211342046FFF7D7
:1027F00085FC2046BDE81040FFF790BC10BD00BF2F
:1028000000214FF6FF72C0E900118260017370472A
:102810000A8842F6004CB0F1804FC4F2010C82628B
:1028200018BF60452ED1036823F0700303604B8806
:1028300002681A4302608A8803681A43026042F6FB
:10284000FF338A68C4F201039842C2620ADD44F28F
:10285000FF32C4F2010290421BDC604525D044F2F5
:1028600000021EE0B0F1804F1FD040F20042C4F2DF
:102870000002904219D042F20002C4F200029042DB
:1028800013D02AE040F20043C4F200039842CAD0B9
:10289000D5E744F60002C4F20102904205D044F2AA
:1028A0000042C4F20102904217D1026822F4407241
:1028B0000260CA8803681343A0F18042A2F59632F1
:1028C0004FEAB222072A036007D8012303FA02F273
:1028D00012F0E10F1CBF097B0163416941F0010166
:1028E00041617047016841F001010160704700BF1C
:1028F000016821F001010160704700BF016841F0EB
:1029000080010160704700BF016821F08001016013
:10291000704700BF016821F002010160704700BFED
:10292000016841F002010160704700BF026822F0B7
:10293000600202600268114301607047016821F083
:1029400010010160704700BF016841F01001016093
:10295000704700BF002A816218BF7047416941F08B
:1029600001014161704700BF01637047C162704758
:1029700041627047406A7047806A80B2704700BF0A
:10298000012907D0002918BF7047016841F00801EC
:1029900001607047016821F008010160704700BFC5
:1029A000012907D0002918BF7047016841F00401D0
:1029B00001607047016821F004010160704700BFA9
:1029C00039B1012918BF7047816841F00801816061
:1029D0007047816821F0080181607047C268114327
:1029E000C1607047C26822EA0101C160704700BF40
:1029F000C26800690A40084018BF0120002A18BFB9
:102A000001221040704700BFC9430161704700BFF9
:102A10000069084018BF0120704700BFC943016129
:102A2000704700BFC2681143C1607047C26822EAA4
:102A30000101C160704700BF012907D0002918BFFC
:102A40007047416841F0080141607047416821F0DA
:102A500008014160704700BFD0F848C041F61F73BD
:102A60002CEA03038364836C114319438164704728
:102A700042691143416170470021C0E90011C0E97A
:102A80000211C0E90411704710B5D1E900230C8987
:102A90001A434B89D1E903CE22431A43496942EADA
:102AA0000C0242EA0E021143416410BD416C41F434
:102AB00080514164704700BF416C21F480514164F2
:102AC000704700BF416C41F480414164704700BFD2
:102AD000416C21F480414164704700BF426C012980
:102AE00022F4004208BF02F500424264704700BF72
:102AF0004268012922F0010208BF0132426070479A
:102B0000012907D0002918BF7047416821F004014E
:102B100041607047416841F004014160704700BF67
:102B200000218181C0E9001181607047032900F212
:102B30000F81DFE801F0028D46D4016A21F0010126
:102B40000162816921F0030181611168036A1943FF
:102B50000162016A21F002010162D188036A0B431C
:102B6000A0F18041A1F596314FEAB1210729036216
:102B700000F2EE80012303FA01F111F0E10F00F001
:102B8000E780016A21F0040101629188036A194318
:102B90000162016A21F0080101621189036A194387
:102BA000016250F8041F21F48071016051890368AB
:102BB00019430160016821F4007101609389026882
:102BC000C3E0016A42F6044C21F480710162C169DC
:102BD000C4F2010C21F00301C1611168036A43EAE8
:102BE00001210162016A21F400710162D388016A46
:102BF00041EA0321ACF104039842016240F0A8804D
:102C0000016A21F4806101629188036A43EA01212B
:102C10000162016A21F4006101621189036A43EAD9
:102C200001210162DCF8000020F48050CCF80000A3
:102C30005089DCF8001041EA0010CCF80000DCF804
:102C4000000020F40050CCF80000908902016DE0F3
:102C5000016A21F010010162816921F440718161F2
:102C60001168036A43EA01110162016A21F020013F
:102C70000162D188036A43EA011144F20003C4F2FD
:102C800001039842016255D042F60041C4F20101AD
:102C900088425DD1016A21F0400101629188036A96
:102CA00043EA01110162016A21F080010162118988
:102CB000036A43EA0111016242F60440C4F20100D2
:102CC000016821F4806101605189036843EA810150
:102CD0000160016821F400610160918933E0016ABB
:102CE00042F6044C21F480510162C169C4F2010C26
:102CF00021F44071C1611168036A43EA0131016244
:102D0000016A21F400510162D388016A41EA03316A
:102D1000ACF104039842016218BF7047DCF8000070
:102D200020F48040CCF8000050898201DCF80030AB
:102D300060460AE044F20400C4F20100016821F494
:102D400080610160518903688A0042EA03010160E1
:102D5000704700BF032988BF7047DFE801F0020E0B
:102D6000050B50F8181F01E050F81C1F21F07001EE
:102D7000016008E050F81C1F01E050F8181F21F412
:102D8000E04112020160016811430160704700BF19
:102D900003299CBF00EB810042637047032988BF71
:102DA0007047DFE801F0020E050B50F8181F01E034
:102DB00050F81C1F21F00801016008E050F81C1FAA
:102DC00001E050F8181F21F400611202016001684F
:102DD00011430160704700BF032988BF7047DFE8D7
:102DE00001F0020E050B50F8181F01E050F81C1FEF
:102DF00021F00401016008E050F81C1F01E050F8C8
:102E0000181F21F480611202016001681143016002
:102E1000704700BF032988BF7047DFE801F0020E4A
:102E2000050B50F8181F01E050F81C1F21F080011D
:102E3000016008E050F81C1F01E050F8181F21F451
:102E4000004112020160016811430160704700BF38
:102E5000032988BF7047DFE801F00216080F50F819
:102E6000201F21F00201016013E050F8201F120220
:102E700021F4007101600CE050F8201F120321F4CE
:102E80000051016005E050F8201F120121F02001DF
:102E90000160016811430160704700BF032988BFCA
:102EA0007047DFE801F00216080F50F8201F21F0EC
:102EB0000801016013E050F8201F120221F40061A4
:102EC00001600CE050F8201F120321F40041016062
:102ED00005E050F8201F120121F080010160016817
:102EE00011430160704700BF032988BF7047DFE8C6
:102EF00001F00216080F50F8201F21F001010160B7
:102F000013E050F8201F120221F4807101600CE0E0
:102F100050F8201F120321F48051016005E050F8A1
:102F2000201F120121F010010160016811430160AE
:102F3000704700BF02290AD001290FD0002918BF0D
:102F4000704750F8201F21F0040101600CE050F898
:102F5000201F120221F48061016005E050F8201F5B
:102F6000120121F0400101600168114301607047C6
:102F70004FF480310160002141607047F0B50329B2
:102F800000F28B80DFE801F0021B355784465CF8C5
:102F9000203F4FF0010E23F00103CCF80030DCF8A5
:102FA000003023F00A03CCF800301388DCF80070FE
:102FB0003B43CCF80030034653F8187F32E0844698
:102FC0005CF8203F4FF0100E23F01003CCF80030D7
:102FD000DCF8003023F0A003CCF800301388DCF8D4
:102FE000007047EA0313CCF80030034653F8187F0B
:102FF0003AE084465CF8203F4FF4807E23F48073EF
:10300000CCF80030DCF8003023F42063CCF800303A
:103010001388DCF8007047EA0323CCF8003003463D
:1030200053F81C7F27F003071F6054881D6804268F
:103030006FF0F00721E084465CF8203F4FF4805E9B
:1030400023F48053CCF80030DCF8003023F4204324
:10305000CCF800301388DCF8007047EA0333CCF872
:103060000030034653F81C7F27F440771F605788D1
:103070001C683D020C266FF470472C431C601C68D2
:103080003C401C60D4881D68B4402C431C60DCF8B4
:10309000003043EA0E03CCF80030032988BFF0BDAE
:1030A0009288DFE801F00205080E50F8181F04E0CE
:1030B00050F8181F07E050F81C1F21F00C010160A8
:1030C00005E050F81C1F21F4406112020160016804
:1030D00011430160F0BD00BF032988BF7047DFE8DE
:1030E00001F0020E050B50F8181F01E050F81C1FEC
:1030F00021F00C01016008E050F81C1F01E050F8BD
:10310000181F21F44061120201600168114301603F
:10311000704700BF03298EBF002000EB8100406B89
:10312000704700BF70B514885688B4FA84F34FF026
:10313000010E5B09012E08BF4FF0020E056A00293F
:103140004FEA430C4FD025F010010162016A21F0D3
:10315000A0010162016A41EA04110162014651F8CD
:10316000183F23F440730B600B6843EA06230B609F
:103170000B6823F470430B60D3880C6844EA033473
:103180000C60046A44F01004046292880C6824F411
:1031900040640C600C6844EA02240C60046A24F069
:1031A00001040462046A24F00A040462046A44EA22
:1031B0000C0606620E6826F003060E600E6846EAEC
:1031C0000E060E600E6826F0F0060E600E6846EAE7
:1031D00003130B60036A43F001030362086820F0E5
:1031E0000C0008604CE025F001010162016A21F049
:1031F0000A010162016A21430162014651F8183F48
:1032000023F003030B600B6833430B600B6823F060
:10321000F0030B60D3880C6844EA03140C60046A62
:1032200044F00104046292880C6824F00C040C60E1
:103230000C6814430C60046A120224F01004046247
:10324000046A24F0A0040462046A44EA0C160662CC
:103250000E6826F440760E600E6846EA0E260E6072
:103260000E6826F470460E600E6846EA03330B6063
:10327000036A43F010030362086820F440600860AA
:1032800008681043086070BD012907D0002918BFE5
:103290007047416841F0800141607047416821F00A
:1032A00080014160704700BF826822F07002826036
:1032B0008268114381607047426822F07002426068
:1032C0004268114341607047826822F007028260C1
:1032D0008268114381607047012907D0002918BF17
:1032E0007047816841F0800181607047816821F0FA
:1032F00080018160704700BFD0F808C011432CF4F2
:103300003F4CC0F808C0D0F808C041EA0C01816009
:10331000816841EA03218160704700BFD0F808C08E
:1033200042EA03122CF0070CC0F808C0D0F808C01D
:1033300041EA0C018160D0F818C040F203312CEA58
:1033400001018161D0F818C040F2011141EA0C017D
:103350008161016A21F00A010162016A21F0A00184
:103360000162016A11430162704700BF816821F068
:1033700007018160704700BF826822F0700282609E
:10338000826811438160816821F007018160816852
:1033900041F0070181607047F0B5066A602911D1DC
:1033A00026F010060662066A120126F0A0060662E2
:1033B00010244FF00C0C6FF4704E4FF480756FF4C6
:1033C00040760EE026F001060662066A4FF0040C15
:1033D00026F00A0606626FF0F00E01256FF0030674
:1033E0000124076A03FA0CF33A430262826932400D
:1033F000826182692A438261826902EA0E028261E5
:1034000082691A438261026A22430262826822F060
:1034100070028260826811438160816821F0070137
:103420008160816841F007018160F0BDD0F808C07B
:1034300011432CF43F4CC0F808C0D0F808C041EA52
:103440000C018160816841EA03218160816821F07B
:1034500077018160816841F077018160704700BF2A
:10346000D0F808C011432CF43F4CC0F808C0D0F885
:1034700008C041EA0C018160816841EA0321816052
:10348000816841F480418160704700BF816821F408
:1034900080418160704700BF0165704710B543F6F9
:1034A0000001C4F20101884209D044F20041C4F293
:1034B0000001884218BF10BD40F2114401E040F203
:1034C0000E342046FEF71AFE2046BDE81040FEF7F7
:1034D00025BE00BFB0B5044643F60000C4F20100AB
:1034E00084420D4607D044F20040C4F200008442FA
:1034F00005D1022000E00620FFF786F800E000205A
:103500002168090406D400EB5500B0FBF5F080B249
:10351000E060B0BD400000EB5500B0FBF5F04FF6A9
:10352000F0710140C0F342000844E060B0BD00BF4C
:10353000026822F001020260026822F4C0620260A6
:103540000268114301607047026822F001020260C4
:10355000026822F4805202600268114301607047E1
:10356000026822F001020260426822F44052426086
:103570004268114341607047016841F001010160F8
:10358000704700BF016821F001010160704700BF72
:10359000026822F00802026002681143016070476D
:1035A000026822F004020260026811430160704761
:1035B0006FF35F2181627047406A6FF35F2070474D
:1035C000026801F4002122F001020260426822F444
:1035D0000022426042681143416070470268072937
:1035E00022F00102026088BF7047DFE801F00409A1
:1035F0000E13181D2227416841F480214160704755
:10360000416821F4802141607047416841F40031F4
:1036100041607047416821F4003141607047416862
:1036200041F4803141607047416821F4803141604C
:103630007047416841F4004141607047416821F49E
:1036400000414160704700BF016821F00101016045
:10365000816821F480518160704700BF016821F0CA
:1036600001010160816841F480518160704700BFB1
:10367000026822F001020260026822F40042026045
:103680000268114301607047026822F00102026083
:10369000826822F400628260826811438160704710
:1036A000416841F480114160704700BF416821F4D6
:1036B00080114160704700BF426822F4C00242603E
:1036C0004268114341607047016841F40051016054
:1036D000704700BF016821F400510160704700BFCE
:1036E000026822F001020260026822F400620260B5
:1036F0000268114301607047026801F0100122F076
:1037000001020260426822F01002426042681143E6
:1037100041607047026822F001020260426822F0B4
:103720007F424260426842EA01614160704700BFE7
:10373000416841F400014160704700BF416821F4D5
:1037400000014160704700BF426902F07F42426160
:103750004269114341617047016821F00101016034
:10376000416841F480414160704700BF016821F029
:1037700001010160416821F480414160704700BF50
:10378000026801F0200122F0010202604268114348
:1037900041607047016821F001010160816841F0DA
:1037A00008018160704700BF016821F001010160DC
:1037B000816821F008018160704700BF016821F035
:1037C00001010160416841F400614160704700BF40
:1037D000016821F001010160416821F4006141604C
:1037E000704700BFD0F800C001F480712CF0010CCC
:1037F000C0F800C0D0F804C002F400722CF4E06CF1
:10380000C0F804C0D0F804C041EA0C01416041682E
:1038100011434160416803F4806211434160704785
:10382000016821F001010160816841F0200181609F
:10383000704700BF016821F001010160816821F03B
:1038400020018160704700BF016821F00101016023
:10385000816841F010018160704700BF016821F06C
:1038600001010160816821F010018160704700BF93
:103870000268090222F001020260026989B222F4A0
:103880007F4202610269114301617047426922F07F
:103890007F424261426942EA01614161704700BF73
:1038A000026801F0070122F001020260826822F43E
:1038B00060228260826842EA41418160704700BFB5
:1038C000016821F001010160816841F0020181601D
:1038D000704700BF016821F001010160816821F09B
:1038E00002018160704700BF026801F0040122F00C
:1038F000010202608268114381607047026822F011
:1039000001020260026922F0FF02026102691143B2
:1039100001617047026822F001020260826822F4AD
:10392000807282608268114381607047026822F071
:1039300001020260826822F4007282608268114390
:1039400081607047016821F001010160816841F4E4
:1039500080418160704700BF016821F00101016072
:10396000816821F480418160704700BF026801F0E6
:103970001F0122F001020260026822F078720260E8
:10398000026842EA41510160704700BF026801F0DD
:103990001F0122F001020260026822F4F8120260A4
:1039A000026842EA01410160704700BF026801F409
:1039B000004122F001020260826822F4004282602B
:1039C0008268114381607047826822F04002826001
:1039D0008268114381607047826822F080028260B1
:1039E0008268114381607047016821F00101016024
:1039F000816841F400518160704700BF016821F087
:103A000001010160816821F400518160704700BFAD
:103A1000016841F002010160704700BF016821F0B8
:103A200002010160704700BF026801F4401122F0FA
:103A300001020260826822F44012826082681143AF
:103A4000816070478A09105801F01F01C84000F0DA
:103A50000100704701F01F010122036A02FA01F11F
:103A600019430162704700BF01F01F02C1F38911C1
:103A70004FF0010C0B580CFA02F21A430A5070472F
:103A800001F01F02C1F389114FF0010C0B580CFA21
:103A900002F223EA02020A50704700BF8269114312
:103AA00081617047C1F3891252F800C08A0D105825
:103AB00001F01F03C1F30441C8402CFA03F1084090
:103AC00000F00100704700BFC1F304410122036A06
:103AD00002FA01F11943016270470000094880476A
:103AE00009480047FEE7FEE7FEE7FEE7FEE7FEE7E0
:103AF000FEE7FEE7FEE7FEE704480549054A064BF8
:103B0000704700001D3B00086901000868010020A3
:103B100068090020680500206805002041F20400C3
:103B2000C4F2020050F8041C41F0010140F8041CEA
:103B300050F8041C8907FBD501680C22C0F6FF026F
:103B40001140016002684FF6FF71CFF2C0710A4068
:103B5000026002684FF6FF7322F44002026050F8E0
:103B6000042CCFF6F2631A4040F8042C826A40F22B
:103B7000431322F00F028262C26A01F500319A43B8
:103B8000C262026B22F001020263002242600268FC
:103B9000026002680260026802600268114001600F
:103BA000016841F0006141F48021016050F8041C7B
:103BB00041F0807140F8041C50F8041C8901FBD5C9
:103BC000016821F003010160016841F00201016018
:103BD00001680907FCD5704741F20400C4F20200F5
:103BE000016801F00C01082941F20021C0F27A01BC
:103BF0001AD1D0F800C0036802681B014FF011030E
:103C000058BF0223D203CCF383421A4405D440F6B2
:103C10000011C0F23D01514306E0836A03F00F0337
:103C20000133B1FBF3F1514340F20002C2F2000252
:103C30001160006804A1C0F30310085C116821FA48
:103C400000F01060704700BF00000000000000009E
:103C5000010203040607080970477047704775465C
:103C600000F02CF8AE4605006946534620F00700E8
:103C7000854618B020B5FFF73FFFBDE820404FF064
:103C800000064FF000074FF000084FF0000BAC4665
:103C9000ACE8C009ACE8C009ACE8C009ACE8C009B0
:103CA00021F007018D46704710B50446AFF3008040
:103CB0002046BDE81040FCF79EBA0000004870475F
:103CC0001800002001491820ABBEFEE726000200C4
:103CD0007047000021F0004201F00043A2F1605261
:103CE000B2F5801F28BFD2F17F6C0BD95FEA001CB0
:103CF00043EAC20242EB507018BF704728BF20F061
:103D000001007047B2F5801FBCBF184670474FEAEC
:103D1000410C1CF5001F02D2084600F082BD70B5B0
:103D200000F086F900000089FFF7F6BF4FF0004071
:103D3000A0F580007047000010B591EA030F48BF5E
:103D400083F0004300F1D081841A71EB030C05D29B
:103D5000121943EB0C03001B61EB0C014FEA1154E9
:103D6000A4EB135CDFF81CE11EEA430F18BF9EEAC8
:103D7000445F00F0748021EA045123EA0E0343F407
:103D80008013DCF1200E32D322FA0CFE10EB0E0071
:103D900023FA0CFE41EB0E01CCF1200E03FA0EFECD
:103DA00010EB0E00CCF1200E51F10001B1F5801F97
:103DB00032D201EB045112FA0EF2BDE8104058BFA6
:103DC0007047401C38BF5FEA420218BF70470028A6
:103DD00014BF20F0010041F100014FEA410313F547
:103DE000001F38BF7047A1F1C04100F06FB9012A30
:103DF00043EB0302ACF1200CDCF11F0E32BF4FF09D
:103E0000000E23FA0CF310EB030041EB0451B4EB6A
:103E1000115FD0D0A1EB045101F58011490801EBED
:103E200004515FEA30000ED350F1000038BF12FA9F
:103E30000EFE08D1BDE81040C9E7401C38BF5FEA5C
:103E40004202CAD1C3E7BDE810404FEA410313F56F
:103E5000001F38BF7047A1F1C04100F037B99EEA9A
:103E6000445F08D011EA5E0FBDE8104004BF01F0C6
:103E7000004100207047BDE8104070B500F0D8F850
:103E800064FBBE3E0000E0FF10F0004248BF40422D
:103E9000B0FA80F310FA03F10AD0C3F11D0303F561
:103EA000806302EB03524FEA415002EBD12170478D
:103EB0004FF000007047B0FA80F310FA03F10AD017
:103EC000C3F11D0303F580634FEA03524FEA4150EB
:103ED00002EBD12170474FF00000704770B5DFF85A
:103EE00048C11CEA111E1EBF1CEA13159EEA0C0FE6
:103EF00095EA0C0F00F06F8081EA03044EEAD47E4D
:103F0000AE4421EA4C1123EA4C1341F4801143F4EE
:103F10008013AEF17F7EA1FB024CA0FB0365361936
:103F200055EB0C05A1FB034C4CF10003A0FB021C5C
:103F300016EB0C06654153F10003094218BF46F029
:103F4000010613F4007F0BD14FEA03314FEA05302D
:103F500041EA155140EA165034036FF003020AE0BB
:103F60004FEAC3214FEAC52041EA555140EA565075
:103F7000F4026FF0020202EB2E4201EB025585EAD9
:103F8000CE710AD05FEA440C18BF24F0004450F10F
:103F9000000041F1000120EAD47040F2FE7C62454D
:103FA00000D270BDA84214BF4FF080444FF040448F
:103FB000002E08BF0024BEF1806FA8BFA1F1C04150
:103FC000BDE8704080F2828001F1C04101F0004103
:103FD0004FF0000070470CEA13159EEA0C0F18BF53
:103FE00095EA0C0F06D081EA030E4FF000000EF0A8
:103FF000004170BD00F01CF88900013E00F007B8D8
:1040000000F009B84FEA430C5FEA5C5C08D081EA33
:10401000030100F05BB84FEA410C5FEA5C5CF6D14B
:1040200002494FF0000070470000FF070000F87FD2
:104030000EF1020E2EF0030E5EF8046B364205D42C
:10404000012A43EB030515F5001F12D8012841EBA7
:10405000010C1CF5001F0CD80ED14FEAD17C0CEBE3
:104060004C0C0CF1020C15F5001F08BF4CEBD37C77
:1040700004E04FF0080C01E04FEAD37C0CEB4C0558
:1040800026FA05F606F00706B6F1040C06D20EEB8A
:10409000860CBDE870404CF0010C6047DFE80CF086
:1040A000090B02024FF00041A1F500214FF0000082
:1040B00070BD19461046012851EB010418BFD4F514
:1040C000001484BF002001F0004170BD0808A0F575
:1040D00000114FEA3101704710B591EA030F48BF54
:1040E00083F000433FF530AE841A71EB030C07D226
:1040F0008CF0004C121943EB0C03001B61EB0C011C
:104100004FEA1154A4EB135CDFF8A4E11EEA430F5D
:1041100018BF9EEA445F00F0B48021EA045123EA0C
:104120006E035242C3EB6E0338BF5B1EDCF1200E00
:1041300025D322FA0CFE10EB0E0043FA0CFE41EBE5
:104140000E01CCF1200E03FA0EFE10EB0E00CCF1A6
:10415000200E51F1000129D401EB045112FA0EF2A4
:10416000BDE8104058BF7047401C1CBFB2F1004F63
:10417000704700280CBF491C20F00100704712EB6B
:10418000020E43EB030218BF4FF0010E4EEA42024B
:10419000ACF1200CDCF11E0E56D943FA0CFE10EBEC
:1041A0000E00CCF11E0E51F1FF31D5D50EF1010EEE
:1041B00012FA0EFE404141EB010101EB445C5FEA63
:1041C0005C5C10D901EB045110EBDE7038BFBEF11E
:1041D000004FBDE8104018BF704700280CBF491CB5
:1041E00020F00100704734D24FEAD42C24F400644C
:1041F00011F500111BD0B1FA81F20B3AA41AA41EDA
:10420000D2F12003914030FA03F31943904001EBBF
:10421000CC7101EB0451002CBDE81040A8BF7047E1
:1042200001F1C04101F000414FF000007047B0FAC9
:1042300080F310FA03F102D1BDE810407047E41A90
:10424000173C4805C90AE2E701EB0451BDE81040FC
:10425000704749104FEA300001EB0451BDE81040AF
:1042600002E04FF0000170474A0008BF0042F8D05A
:10427000B2F5001F28BF704701F000414FF0000069
:1042800070479EEA445F07D011EA5E0FBDE8104018
:1042900004BF002100207047BDE8104070B5FFF753
:1042A000C7FE00BF40DFF63E104683F00041704776
:1042B0000000E0FF43004FEAD30C4FEA3C0C4340C0
:1042C0001FBF40070CF1605113F0FE4F70471CF008
:1042D000006F03D10CF00041002070470CF0004348
:1042E00043EA507040EACC0010B500F054FA00BF29
:1042F000000000924FEA0001FFF7E8BE4FF00041D6
:10430000A1F500214FF00000704710B500F0F6F85D
:104310000CBF0120002010BD10B500F0EFF814BF55
:104320000120002010BD10B500F04CF98CBF012019
:10433000002010BD10B500F045F92CBF0120002071
:1043400010BD10B500F072F994BF0120002010BD1F
:1043500010B500F06BF934BF0120002010BD4010F3
:1043600058BFC0F14040491058BFC1F1404181429F
:10437000EFF30080704700004FF47F0C1CEAD0126E
:104380001EBF1CEAD11392EA0C0F93EA0C0F00F047
:10439000858090EA010F48BF42F4807240F4000C1F
:1043A00041F400002CF07F4120F07F4000B5A2EBEB
:1043B000030281420FF2081CACEB504E9EF800E065
:1043C000C0F100004FEA4E0E00FB0EFC38BF490062
:1043D0004FEA2C1C0CFB0EF34FEACE1E0EEB635E75
:1043E0004FEA112C0EFB0CFC4FEAC1214FEA1C5383
:1043F00000FB031102F5FA024FEA112C0EFB0CFC34
:104400004FEA01314FEADC4C00FB0C1142EB224237
:10441000C14228BF09184CEB03335DF804EB10EBE5
:10442000410143EBC250B2F57C0F38BF704729D52C
:1044300012F0F00F1CBF00F1C04000F000407047C8
:10444000008182838485868788898B8C8D8E8F916D
:104450009293959697999A9C9D9FA0A2A3A5A7A891
:10446000AAACAEB0B2B3B5B7B9BCBEC0C2C5C7C9BD
:10447000CCCED1D4D7D9DCDFE2E6E9ECF0F3F7FA21
:10448000FE0000004FEA400C0CF1807CBCF17E4F36
:1044900028BF7047B0F1C04000F0C3B90CEAD11397
:1044A00090EA010F48BF42F48072624538BF63450D
:1044B00007D213F47F0F16D080EA010000F000400D
:1044C000704710B500F067F9097EFC3E00F005B8B2
:1044D00080EA010000F00040704780EA010000F02F
:1044E000004000F09EB912F47F0F04BF02487047ED
:1044F00080EA010000F095B90000C07F50EA010C8D
:1045000000F113801CF5000F58BFBCF5000F01D45B
:104510008842704707D710F5000F58BF11F5000FFC
:1045200015D488427047894270471CF5000F04D5A6
:10453000BCF5000FF7D5814270474FF0807C1CEB33
:10454000400F38BF1CEB410F01D28142704710B5BC
:1045500000F021F9922449004FF000504FF08051B3
:10456000FFF7FDBE41000B0ED3F19E0208D950F4B7
:1045700000034FEA032323FA02F048BF404270478A
:1045800010B500F008F900BF499224800020704760
:104590006FF0004282EA200070470000B0FA80F31A
:1045A00010FA03F2C3F19D030AD0D90501EB1220E2
:1045B000530638BF704700F1010008BF20F001002A
:1045C0007047000050EA010C00F113801CF5000F49
:1045D00058BFBCF5000F01D48842704707D710F5CB
:1045E000000F58BF11F5000F15D48842704789425B
:1045F00070471CF5000F04D5BCF5000FF7D58142BC
:1046000070474FF0807C1CEB400F38BF1CEB410F14
:1046100001D28142704710B500F0BDF892244900E4
:104620004FF080504FF00051FFF799BE50EA010C57
:1046300000F113801CF5000F58BFBCF5000F01D42A
:104640008842704707D710F5000F58BF11F5000FCB
:1046500015D488427047894270471CF5000F04D575
:10466000BCF5000FF7D5814270474FF0807C1CEB02
:10467000400F38BF1CEB410F01D28142704710B58B
:1046800000F089F8922449004FF000504FF080511B
:10469000FFF765BE4FF47F0C1CEAD0121EBF1CEA68
:1046A000D11392EA0C0F93EA0C0F00F0478090EAC6
:1046B000010F48BF42F480724FF0004C4CEA0020DA
:1046C0004CEA012102EB0302A0FB0113A2F5000258
:1046D000002918BF43F001035B0028BF4FEA3303F2
:1046E00042EB22425FEA132C4CEBC2502EBFBCEBD4
:1046F000436FB2F57C0F70474FEA036CBCF1004F7B
:1047000008BF20F00100B2F57C0F38BF70470BD511
:1047100082F0FF0212F5803FC8BF704700F1C04031
:10472000D8BF00F00040704700F5000C5FEA4C0C69
:1047300048BF7047B0F1C04000F073B80CEAD11325
:1047400090EA010F48BF42F48072624538BF63456A
:1047500004D280EA010000F00040704710B500F07C
:104760001AF800BF8900013E00F007B800F009B850
:104770005FEA410C5FEA1C6C08D080EA010000F09F
:1047800050B85FEA400C5FEA1C6CF6D14FF0004075
:10479000A0F5800070470EF1020E2EF0030E5EF8B9
:1047A000044B244204D44FEA4102B2F17F4F11D8A6
:1047B0004FEA4003B3F17F4F0CD80ED14FEAD07CC3
:1047C0000CEB4C0C0CF1020CB2F17F4F08BF4CEB20
:1047D000D17C04E04FF0080C01E04FEAD17C0CEBF7
:1047E0004C0324FA03F404F00704B4F1040C06D2D9
:1047F0000EEB840CBDE810404CF0010C6047DFE884
:104800000CF0070802024FF00040A0F5800010BD38
:104810000846420018BFD2F1807288BF00F0004005
:1048200010BDFF2141EAD050C0057047110A120A9D
:10483000130A140A110A160A0000000001020304F8
:10484000000305040102060068480008000000207B
:1048500018000000A401000880480008180000208B
:1048600050090000C001000800A24A0400002042D4
:104870000100FFFFFFFFD007010000000000000063
:040000050800016985
:00000001FF
